:020000040800F2
:1000000000000120F9060008490700084907000818
:1000100049070008490700084907000800000000D8
:100020000000000000000000000000004907000878
:1000300049070008000000004907000849070008B8
:1000400000000000490700084907000849070008A8
:100050004907000849070008490700084907000840
:100060004907000849070008490700080000000088
:100070000000000000000000000000000000000080
:100080000000000000000000490700080000000018
:100090000000000000000000000000004907000808
:1000A00049070008490700084907000849070008F0
:1000B0004907000849070008000000004907000838
:1000C00049070008490700084907000849070008D0
:1000D00049070008000000000000000000000000C8
:1000E0004907000849070008490700080000000008
:1000F0000000000000000000000000000000000000
:10010000000000004907000800000000490700083F
:1001100000000000000000000000000000000000DF
:1001200000000000000000000000000000000000CF
:1001300000000000000000000000000000000000BF
:100140000000000000000000000000004907000857
:10015000000000000000000000000000000000009F
:1001600049070008490700080000000000000000DF
:10017000000000000000000000000000000000007F
:100180000000000049070008000000000000000017
:040190004907000813
:1001940010B5054C237833B9044B13B10448AFF3BD
:1001A40000800123237010BD4404002000000000DF
:1001B400B008000808B5034B1BB103490348AFF36B
:1001C400008008BD0000000048040020B0080008BA
:1001D40080B483B000AF7860084611461A460346DF
:1001E400FB700B46BB7013467B70204B1A6B7B78FD
:1001F400012101FA03F31D4913430B63BB78002B60
:1002040016D07B681A68FB785B00012101FA03F3BE
:100214001A437B681A607B681A68FB785B000133B9
:10022400012101FA03F3DB431A407B681A6016E0EC
:100234007B681A68FB785B00012101FA03F3DB4356
:100244001A407B681A607B681A68FB785B0001338C
:10025400012101FA03F3DB431A407B681A6000BFF3
:100264000C37BD465DF8047B704700BF0038024080
:1002740080B483B000AF78600B46FB701346BB704C
:100284007B681A68FB785B00012101FA03F31340D1
:10029400002B18D0BB78002B09D07B685A69FB78F7
:1002A400012101FA03F31A437B685A6109E07B6870
:1002B4005A69FB78012101FA03F3DB431A407B6896
:1002C4005A61002300E0012318460C37BD465DF84F
:1002D400047B704780B483B000AF78600B46FB703A
:1002E4007B681A68FB785B00012101FA03F3134071
:1002F400002B0CD07B685B69FA78012101FA02F2C9
:100304001340002B01D001230DE000230BE07B6898
:100314001B69FA78012101FA02F21340002B01D083
:10032400012300E0002318460C37BD465DF8047B2A
:10033400704780B483B000AF78600B46FB701346FF
:10034400BB70BB78002B16D07B68DA68FB785B0047
:10035400012101FA03F31A437B68DA607B68DA68E7
:10036400FB785B000133012101FA03F3DB431A40FC
:100374007B68DA6015E07B68DA68FB785B00012152
:1003840001FA03F3DB431A407B68DA607B68DA68BE
:10039400FB785B000133012101FA03F31A437B6804
:1003A400DA6000BF0C37BD465DF8047B704700007F
:1003B40080B582B000AF00237B601BE01A4A7B68E3
:1003C40013441978012300221848FFF701FF164A45
:1003D4007B6813441B78002219461448FFF7A9FFD1
:1003E4007B68D9B2012301221048FFF7F1FE7B6834
:1003F40001337B607B68032BE0DD00233B600BE073
:100404000B4A3B6813441978012301220748FFF77C
:10041400DFFE3B6801333B603B68022BF0DD00BF2D
:100424000837BD4680BD00BF000000200004024024
:100434000400002080B582B000AF00237B604DE053
:100444002A4A7B6813441B78012219462848FFF77F
:100454000FFF00233B6031E0264A3B6813441B78BE
:1004640019462348FFF736FF0346002B23D000BF6D
:10047400204A3B6813441B7819461D48FFF72AFF9E
:100484000346002BF4D11C493A6813465B0013441D
:10049400CA187B6813441B78092B0CD816493A6890
:1004A40013465B001344CA187B6813441A78134B31
:1004B4001A7000F031F83B6801333B6004223B685A
:1004C4009342C9DB094A7B6813441B78002219460E
:1004D4000748FFF7CDFE7B6801337B6003227B680E
:1004E4009342ADDB00BF0837BD4680BD0400002049
:1004F40000040240000000200800002060040020E6
:1005040080B400AF034B1B781846BD465DF8047BEE
:10051400704700BF6004002080B582B000AFFFF7D1
:10052400EFFF03467B607B68DBB203F00103DBB2C1
:100534001A4600211248FFF79BFE7B68DBB203F0EA
:100544000203DBB21A4601210D48FFF791FE7B68D6
:10055400DBB203F00403DBB21A4602210848FFF7BA
:1005640087FE7B68DBB203F00803DBB21A46032183
:100574000348FFF77DFE00BF0837BD4680BD00BFBE
:100584000004024080B500AFFFF712FFFFF752FFEF
:10059400FCE7000080B500AF164BD3F88830154A4D
:1005A40043F47003C2F88830134B1B68124A43F0BB
:1005B40001031360104B00229A600F4B1B680E4A14
:1005C40023F0847323F4803313600B4B0B4A5A607B
:1005D400094B1B68084A23F480231360064B00224E
:1005E400DA6000F00DF8034B4FF000629A6000BF30
:1005F40080BD00BF00ED00E0003802401030002450
:1006040080B483B000AF00237B6000233B60354B94
:100614001B68344A43F480331360324B1B6803F481
:1006240000333B607B6801337B603B68002B03D164
:100634007B68B3F5A04FF0D12A4B1B6803F4003359
:10064400002B02D001233B6001E000233B603B68A8
:10065400012B40D1234B1B6C224A43F0805313647B
:10066400214B1B68204A43F4404313601D4B1D4A31
:100674009B6893601B4B1B4A9B689360194B9B6858
:10068400184A43F480539360164B184A5A60154B2A
:100694001B68144A43F08073136000BF114B1B683E
:1006A40003F00073002BF9D0114B40F202721A6070
:1006B4000C4B9B680B4A23F003039360094B9B6824
:1006C400084A43F00203936000BF064B9B6803F0A3
:1006D4000C03082BF9D100BF0C37BD465DF8047B31
:1006E400704700BF003802400070004019544107B1
:1006F400003C02400D4885460D480E490E4A002331
:1007040002E0D458C4500433C4188C42F9D30B4AC1
:100714000B4C002301E013600432A242FBD3FFF729
:1007240039FF00F011F8FFF72DFFFEE7000001206C
:100734000000002044040020D808000844040020DD
:1007440088040020FEE7000070B50D4E0D4D761BA9
:10075400B61006D00024013455F8043B9847A6424D
:10076400F9D1094E094D761B00F0A0F8B61006D059
:100774000024013455F8043B9847A642F9D170BDD2
:10078400CC080008CC080008D4080008CC080008ED
:10079400024B13B1024800F005B870470000000096
:1007A400B5070008002301461A46184600F01EB893
:1007B40038B50A4C0A4D641BA4100AD004F18043D6
:1007C400013B05EB8305013C55F804399847002C9F
:1007D400F9D1BDE8384000F06FB800BFD808000870
:1007E400D4080008704700BF704700BF2DE9F843E4
:1007F4002B4D0646286898460F469146FFF7F2FFB0
:10080400284B1C68D4F84831002B3DD05A681F2A65
:100814000DDC02F1010C16BB0232C3F804C02868D7
:1008240043F82270FFF7E0FF0020BDE8F8831E4B79
:100834007BB34FF4C870AFF30080034648B3D4F8D9
:1008440048210021C0E900214FF0010CC4F84801FF
:100854000A46C0F88811C0F88C11002EDCD003EBD6
:1008640082010124C1F88890D3F888019440204380
:10087400022EC3F88801C1F80881CDD1D3F88C11B8
:100884000C43C3F88C41C7E704F5A673C4F8483198
:10089400BCE72868FFF7A8FF4FF0FF30C5E700BFAB
:1008A40040040020C808000800000000F8B500BF9C
:1008B400F8BC08BC9E467047F8B500BFF8BC08BC3D
:0408C4009E46704795
:0408C80018000020F4
:0808CC0095070008B9010008BE
:0408D4009501000882
:1008D8000C0D0E0F08090A0001020304050607089B
:1008E800092A002300000000000000000403002083
:1008F8006C030020D403002000000000000000006A
:1009080000000000000000000000000000000000DF
:1009180000000000000000000000000000000000CF
:1009280000000000000000000000000000000000BF
:1009380000000000000000000000000000000000AF
:10094800000000000000000000000000000000009F
:10095800000000000000000000000000000000008F
:10096800000000000000000000000000000000007F
:10097800000000000000000000000000000000006F
:10098800000000000000000000000000000000005F
:1009980001000000000000000E33CDAB34126DE6FC
:1009A800ECDE05000B000000000000000000000065
:1009B800000000000000000000000000000000002F
:1009C800000000000000000000000000000000001F
:1009D800000000000000000000000000000000000F
:1009E80000000000000000000000000000000000FF
:040D1800640400204F
:04000005080006F9F0
:00000001FF
