:020000040800F2
:100000000000012085020008D5020008D502000882
:10001000D5020008D5020008D50200080000000043
:10002000000000000000000000000000D5020008F1
:10003000D502000800000000D5020008D502000823
:1000400000000000D5020008D5020008D502000813
:10005000D5020008D5020008D5020008D502000824
:10006000D5020008D5020008D502000800000000F3
:100070000000000000000000000000000000000080
:100080000000000000000000D50200080000000091
:10009000000000000000000000000000D502000881
:1000A000D5020008D5020008D5020008D5020008D4
:1000B000D5020008D502000800000000D5020008A3
:1000C000D5020008D5020008D5020008D5020008B4
:1000D000D502000800000000000000000000000041
:1000E000D5020008D5020008D50200080000000073
:1000F0000000000000000000000000000000000000
:1001000000000000D502000800000000D502000831
:1001100000000000000000000000000000000000DF
:1001200000000000000000000000000000000000CF
:1001300000000000000000000000000000000000BF
:10014000000000000000000000000000D5020008D0
:10015000000000000000000000000000000000009F
:10016000D5020008D50200080000000000000000D1
:10017000000000000000000000000000000000007F
:1001800000000000D5020008000000000000000090
:04019000D50200088C
:1001940010B5054C237833B9044B13B10448AFF3BD
:1001A40000800123237010BD2C04002000000000F7
:1001B4003C04000808B5034B1BB103490348AFF3E3
:1001C400008008BD00000000300400203C0400084A
:1001D40080B483B000AF00237B60234B1B68224AAA
:1001E40043F002031360214B1B68204A43F4A843E5
:1001F40013601E4B1B681D4A23F4284313601C4BD9
:100204001B681B4A23F0E0031360184B1B68174A52
:1002140023F0C0031360174B1B68164A43F04003D6
:100224001360144B1B68134A23F080031360124BB2
:100234001B6803F00803002BF9D17B6801337B6052
:100244007B68082B01D100237B607B685B013B60EA
:100254000A4A3B68136000BF074B1B6803F008039E
:10026400002BF9D0E3E700BF30380240000402401D
:10027400040402400C04024010040240140402402E
:100284000D4885460D480E490E4A002302E0D45815
:10029400C4500433C4188C42F9D30B4A0B4C0023CA
:1002A40001E013600432A242FBD3AFF3008000F0FC
:1002B40011F8FFF78DFFFEE7000001200000002089
:1002C4002C040020640400082C0400206C0400208A
:1002D400FEE7000070B50D4E0D4D761BB61006D02E
:1002E4000024013455F8043B9847A642F9D1094E3D
:1002F400094D761B00F0A0F8B61006D00024013496
:1003040055F8043B9847A642F9D170BD580400083B
:10031400580400086004000858040008024B13B194
:10032400024800F005B870470000000041030008CF
:10033400002301461A46184600F01EB838B50A4C88
:100344000A4D641BA4100AD004F18043013B05EB61
:100354008305013C55F804399847002CF9D1BDE8D0
:10036400384000F06FB800BF64040008600400085F
:10037400704700BF704700BF2DE9F8432B4D064678
:10038400286898460F469146FFF7F2FF284B1C68F1
:10039400D4F84831002B3DD05A681F2A0DDC02F1F5
:1003A400010C16BB0232C3F804C0286843F822705B
:1003B400FFF7E0FF0020BDE8F8831E4B7BB34FF44A
:1003C400C870AFF30080034648B3D4F84821002135
:1003D400C0E900214FF0010CC4F848010A46C0F8F6
:1003E4008811C0F88C11002EDCD003EB82010124AB
:1003F400C1F88890D3F8880194402043022EC3F8B2
:100404008801C1F80881CDD1D3F88C110C43C3F80D
:100414008C41C7E704F5A673C4F84831BCE72868E3
:10042400FFF7A8FF4FF0FF30C5E700BF2804002006
:100434005404000800000000F8B500BFF8BC08BC74
:100444009E467047F8B500BFF8BC08BC9E4670478E
:040454000000002084
:0804580021030008B9010008AE
:0404600095010008FA
:1004640000000000EC02002054030020BC03002024
:100474000000000000000000000000000000000078
:100484000000000000000000000000000000000068
:100494000000000000000000000000000000000058
:1004A4000000000000000000000000000000000048
:1004B4000000000000000000000000000000000038
:1004C4000000000000000000000000000000000028
:1004D4000000000000000000000000000000000018
:1004E4000000000000000000000000000000000008
:1004F40000000000000000000000000000000000F8
:1005040000000000000000000100000000000000E6
:100514000E33CDAB34126DE6ECDE05000B000000AB
:1005240000000000000000000000000000000000C7
:1005340000000000000000000000000000000000B7
:1005440000000000000000000000000000000000A7
:100554000000000000000000000000000000000097
:0C088400000000000000000048040020FC
:040000050800028568
:00000001FF
