:020000040800F2
:1000000000000120C90500081906000819060008AB
:10001000190600081906000819060008000000006B
:1000200000000000000000000000000019060008A9
:10003000190600080000000019060008190600084B
:10004000000000001906000819060008190600083B
:100050001906000819060008190600081906000804
:10006000190600081906000819060008000000001B
:100070000000000000000000000000000000000080
:100080000000000000000000190600080000000049
:100090000000000000000000000000001906000839
:1000A00019060008190600081906000819060008B4
:1000B00019060008190600080000000019060008CB
:1000C0001906000819060008190600081906000894
:1000D00019060008000000000000000000000000F9
:1000E000190600081906000819060008000000009B
:1000F0000000000000000000000000000000000000
:1001000000000000190600080000000019060008A1
:1001100000000000000000000000000000000000DF
:1001200000000000000000000000000000000000CF
:1001300000000000000000000000000000000000BF
:100140000000000000000000000000001906000888
:10015000000000000000000000000000000000009F
:100160001906000819060008000000000000000041
:10017000000000000000000000000000000000007F
:100180000000000019060008000000000000000048
:040190001906000844
:1001940010B5054C237833B9044B13B10448AFF3BD
:1001A40000800123237010BD2C04002000000000F7
:1001B4008007000808B5034B1BB103490348AFF39C
:1001C400008008BD00000000300400208007000803
:1001D40080B483B000AF7860084611461A460346DF
:1001E400FB700B46BB7013467B70204B1A6B7B78FD
:1001F400012101FA03F31D4913430B63BB78002B60
:1002040016D07B681A68FB785B00012101FA03F3BE
:100214001A437B681A607B681A68FB785B000133B9
:10022400012101FA03F3DB431A407B681A6016E0EC
:100234007B681A68FB785B00012101FA03F3DB4356
:100244001A407B681A607B681A68FB785B0001338C
:10025400012101FA03F3DB431A407B681A6000BFF3
:100264000C37BD465DF8047B704700BF0038024080
:1002740080B483B000AF78600B46FB701346BB704C
:100284007B681A68FB785B00012101FA03F31340D1
:10029400002B18D0BB78002B09D07B685A69FB78F7
:1002A400012101FA03F31A437B685A6109E07B6870
:1002B4005A69FB78012101FA03F3DB431A407B6896
:1002C4005A61002300E0012318460C37BD465DF84F
:1002D400047B704780B483B000AF78600B46FB703A
:1002E4007B681A68FB785B00012101FA03F3134071
:1002F400002B0AD07B685B69DAB2FB78012101FA32
:1003040003F3DBB21340DBB209E07B681B69DAB2AA
:10031400FB78012101FA03F3DBB21340DBB2184688
:100324000C37BD465DF8047B704780B483B000AFE2
:1003340078600B46FB701346BB70BB78002B16D05D
:100344007B68DA68FB785B00012101FA03F31A4346
:100354007B68DA607B68DA68FB785B000133012133
:1003640001FA03F3DB431A407B68DA6015E07B682B
:10037400DA68FB785B00012101FA03F3DB431A40DE
:100384007B68DA607B68DA68FB785B000133012103
:1003940001FA03F31A437B68DA6000BF0C37BD46E9
:1003A4005DF8047B7047000080B582B000AF002385
:1003B4007B600123012205212948FFF709FF01235E
:1003C400012206212648FFF703FF0123012207210A
:1003D4002348FFF7FDFE0123002203212048FFF7F5
:1003E400F7FE012203211E48FFF79FFF03211C484B
:1003F400FFF770FF0346002BF8D17B6801337B6065
:100404007B68082B01D100237B607B685B013B6028
:100414003B68DBB203F02003DBB21A460521104827
:10042400FFF726FF3B68DBB203F04003DBB21A465A
:1004340006210B48FFF71CFF3B68DBB223F07F0368
:10044400DBB21A4607210648FFF712FF00BF03215B
:100454000348FFF73FFF0346002BF8D0C6E700BF71
:100464000004024080B500AF164BD3F88830154A1B
:1004740043F47003C2F88830134B1B68124A43F0EC
:1004840001031360104B00229A600F4B1B680E4A45
:1004940023F0847323F4803313600B4B0B4A5A60AC
:1004A400094B1B68084A23F480231360064B00227F
:1004B400DA6000F00DF8034B4FF000629A6000BF61
:1004C40080BD00BF00ED00E0003802401030002481
:1004D40080B483B000AF00237B6000233B60354BC6
:1004E4001B68344A43F480331360324B1B6803F4B3
:1004F40000333B607B6801337B603B68002B03D196
:100504007B68B3F5A04FF0D12A4B1B6803F400338A
:10051400002B02D001233B6001E000233B603B68D9
:10052400012B40D1234B1B6C224A43F080531364AC
:10053400214B1B68204A43F4404313601D4B1D4A62
:100544009B6893601B4B1B4A9B689360194B9B6889
:10055400184A43F480539360164B184A5A60154B5B
:100564001B68144A43F08073136000BF114B1B686F
:1005740003F00073002BF9D0114B40F202721A60A1
:100584000C4B9B680B4A23F003039360094B9B6855
:10059400084A43F00203936000BF064B9B6803F0D4
:1005A4000C03082BF9D100BF0C37BD465DF8047B62
:1005B400704700BF003802400070004019544107E2
:1005C400003C02400D4885460D480E490E4A002362
:1005D40002E0D458C4500433C4188C42F9D30B4AF3
:1005E4000B4C002301E013600432A242FBD3FFF75B
:1005F40039FF00F011F8FFF7D7FEFEE700000120F5
:10060400000000202C040020A80700082C0400206F
:100614006C040020FEE7000070B50D4E0D4D761BF6
:10062400B61006D00024013455F8043B9847A6427E
:10063400F9D1094E094D761B00F0A0F8B61006D08A
:100644000024013455F8043B9847A642F9D170BD03
:100654009C0700089C070008A40700089C070008E2
:10066400024B13B1024800F005B8704700000000C7
:1006740085060008002301461A46184600F01EB8F5
:1006840038B50A4C0A4D641BA4100AD004F1804307
:10069400013B05EB8305013C55F804399847002CD0
:1006A400F9D1BDE8384000F06FB800BFA8070008D2
:1006B400A4070008704700BF704700BF2DE9F84346
:1006C4002B4D0646286898460F469146FFF7F2FFE1
:1006D400284B1C68D4F84831002B3DD05A681F2A97
:1006E4000DDC02F1010C16BB0232C3F804C0286809
:1006F40043F82270FFF7E0FF0020BDE8F8831E4BAB
:100704007BB34FF4C870AFF30080034648B3D4F80A
:1007140048210021C0E900214FF0010CC4F8480130
:100724000A46C0F88811C0F88C11002EDCD003EB07
:1007340082010124C1F88890D3F8880194402043B1
:10074400022EC3F88801C1F80881CDD1D3F88C11E9
:100754000C43C3F88C41C7E704F5A673C4F84831C9
:10076400BCE72868FFF7A8FF4FF0FF30C5E700BFDC
:10077400280400209807000800000000F8B500BF16
:10078400F8BC08BC9E467047F8B500BFF8BC08BC6E
:040794009E467047C6
:04079800000000203D
:08079C0065060008B901000820
:0407A40095010008B3
:1007A80000000000EC02002054030020BC030020DD
:1007B8000000000000000000000000000000000031
:1007C8000000000000000000000000000000000021
:1007D8000000000000000000000000000000000011
:1007E8000000000000000000000000000000000001
:1007F80000000000000000000000000000000000F1
:1008080000000000000000000000000000000000E0
:1008180000000000000000000000000000000000D0
:1008280000000000000000000000000000000000C0
:1008380000000000000000000000000000000000B0
:10084800000000000000000001000000000000009F
:100858000E33CDAB34126DE6ECDE05000B00000064
:100868000000000000000000000000000000000080
:100878000000000000000000000000000000000070
:100888000000000000000000000000000000000060
:100898000000000000000000000000000000000050
:0C0BC800000000000000000048040020B5
:04000005080005C921
:00000001FF
