:020000040800F2
:100000000000012045080008950800089508000830
:1000100095080008950800089508000800000000F1
:10002000000000000000000000000000950800082B
:1000300095080008000000009508000895080008D1
:1000400000000000950800089508000895080008C1
:1000500095080008950800085D060008A10600083C
:1000600095080008950800089508000800000000A1
:100070000000000000000000000000000000000080
:1000800000000000000000009508000800000000CB
:1000900000000000000000000000000095080008BB
:1000A00095080008950800089508000895080008BC
:1000B0009508000895080008000000009508000851
:1000C000950800089508000895080008950800089C
:1000D000950800080000000000000000000000007B
:1000E0009508000895080008950800080000000021
:1000F0000000000000000000000000000000000000
:1001000000000000950800080000000095080008A5
:1001100000000000000000000000000000000000DF
:1001200000000000000000000000000000000000CF
:1001300000000000000000000000000000000000BF
:10014000000000000000000000000000950800080A
:10015000000000000000000000000000000000009F
:100160009508000895080008000000000000000045
:10017000000000000000000000000000000000007F
:1001800000000000950800080000000000000000CA
:0401900095080008C6
:1001C00010B5054C237833B9044B13B10448AFF391
:1001D00000800123237010BDB8050020000000003E
:1001E000540D000808B5034B1BB103490348AFF396
:1001F000008008BD00000000BC050020540D000870
:1002000090F800F06DE9024520F007016FF0000C56
:1002100010F0070491F820F040F049804FF00004FE
:100220006FF00700D1E9002391F840F000F10800D9
:1002300082FA4CF2A4FA8CF283FA4CF3A2FA8CF311
:100240004BBBD1E9022382FA4CF200F10800A4FA78
:100250008CF283FA4CF3A2FA8CF3E3B9D1E90423CC
:1002600082FA4CF200F10800A4FA8CF283FA4CF303
:10027000A2FA8CF37BB9D1E9062301F1200182FABD
:100280004CF200F10800A4FA8CF283FA4CF3A2FAC3
:100290008CF3002BC6D0002A04BF04301A4612BAD1
:1002A000B2FA82F2FDE8024500EBD2007047D1E9D4
:1002B000002304F00305C4F100004FEAC50514F063
:1002C000040F91F840F00CFA05F562EA05021CBF34
:1002D00063EA050362464FF00004A9E780B483B0E7
:1002E00000AF7860084611461A460346FB700B467D
:1002F000BB7013467B70204B1A6B7B78012101FA8F
:1003000003F31D4913430B63BB78002B16D07B68A6
:100310001A68FB785B00012101FA03F31A437B683A
:100320001A607B681A68FB785B000133012101FACF
:1003300003F3DB431A407B681A6016E07B681A6897
:10034000FB785B00012101FA03F3DB431A407B6871
:100350001A607B681A68FB785B000133012101FA9F
:1003600003F3DB431A407B681A6000BF0C37BD46BD
:100370005DF8047B704700BF0038024080B483B052
:1003800000AF78600B46FB701346BB707B681A6841
:10039000FB785B00012101FA03F31340002B18D016
:1003A000BB78002B09D07B685A69FB78012101FAE0
:1003B00003F31A437B685A6109E07B685A69FB784A
:1003C000012101FA03F3DB431A407B685A610023E1
:1003D00000E0012318460C37BD465DF8047B7047EA
:1003E00080B483B000AF78600B46FB701346BB70DF
:1003F000BB78002B16D07B68DA68FB785B000121A4
:1004000001FA03F31A437B68DA607B68DA68FB78E9
:100410005B000133012101FA03F3DB431A407B68DF
:10042000DA6015E07B68DA68FB785B00012101FA8D
:1004300003F3DB431A407B68DA607B68DA68FB7899
:100440005B000133012101FA03F31A437B68DA6090
:1004500000BF0C37BD465DF8047B704780B588B09F
:1004600000AFF860B9607A603A4B5B6C394A43F48C
:10047000804353640023FB610323BB6134E0BA690A
:100480007B689A421BD100237B6115E0324A7B696D
:1004900052F82330FA689A420BD10A222F49786920
:1004A00000F03AFA2D492E4800F038FA0123FB619A
:1004B00000BF7B6901337B617B69042BE6DDFB694F
:1004C000002B02D00023FB610BE02548FFF798FECC
:1004D00003461A46224B134422491A460B461B88F0
:1004E0001380BB69013BBB61BB69002BC7DA1022DB
:1004F00000211B4800F022FB38611B4ABB68023315
:1005000052F823203B6918491A43BB68023341F86B
:100510002320164B1A6801217B6801FA03F3134963
:1005200013430B60114BDA6801217B6801FA03F376
:100530000E491343CB600E4B1A687B6806330121CA
:1005400001FA03F30A4913430B6000BF2037BD468D
:1005500080BD00BF0038024000000020D805002008
:10056000140000206C0D000800380140003C0140E0
:1005700000E100E080B500AF0023012200211B480C
:10058000FFF7ACFE0023012201211848FFF7A6FE69
:100590000023012202211548FFF7A0FE00230122BB
:1005A00003211248FFF79AFE012300220021104880
:1005B000FFF794FE0123002201210D48FFF78EFE74
:1005C000012200210A48FFF70BFF01220121084800
:1005D000FFF706FF002200210548FFF73FFF012239
:1005E00000210348FFF73AFFFEE700BF000002408A
:1005F0000004024080B500AF164B1B68DBB203F06D
:100600000103DBB21A4600211348FFF7B7FE114B76
:100610001B68DBB203F00203DBB21A4601210E486D
:10062000FFF7ACFE0B4B1B68DBB203F00403DBB23D
:100630001A4602210848FFF7A1FE064B1B68DBB2F1
:1006400003F00803DBB21A4603210348FFF796FEC6
:1006500000BF80BDD40500200000024080B500AF7F
:100660000D4B1B68082B04DC0B4B1B6801330A4A3B
:1006700013600A4BD3F88030084A43F08003C2F875
:100680008030FFF7B7FF054B1B68044A43F0800337
:10069000136000BF80BD00BFD405002000E100E072
:1006A00080B500AF0D4B1B68002B04DD0B4B1B68A6
:1006B000013B0A4A13600A4BD3F88030084A43F0E2
:1006C0004003C2F88030FFF795FF054B1B68044AD2
:1006D00043F04003136000BF80BD00BFD40500207D
:1006E00000E100E080B500AF164BD3F88830154A22
:1006F00043F47003C2F88830134B1B68124A43F06E
:1007000001031360104B00229A600F4B1B680E4AC6
:1007100023F0847323F4803313600B4B0B4A5A602D
:10072000094B1B68084A23F480231360064B002200
:10073000DA6000F00DF8034B4FF000629A6000BFE2
:1007400080BD00BF00ED00E0003802401030002402
:1007500080B483B000AF00237B6000233B60354B47
:100760001B68344A43F480331360324B1B6803F434
:1007700000333B607B6801337B603B68002B03D117
:100780007B68B3F5A04FF0D12A4B1B6803F400330C
:10079000002B02D001233B6001E000233B603B685B
:1007A000012B40D1234B1B6C224A43F0805313642E
:1007B000214B1B68204A43F4404313601D4B1D4AE4
:1007C0009B6893601B4B1B4A9B689360194B9B680B
:1007D000184A43F480539360164B184A5A60154BDD
:1007E0001B68144A43F08073136000BF114B1B68F1
:1007F00003F00073002BF9D0114B40F202721A6023
:100800000C4B9B680B4A23F003039360094B9B68D6
:10081000084A43F00203936000BF064B9B6803F055
:100820000C03082BF9D100BF0C37BD465DF8047BE3
:10083000704700BF00380240007000401954410763
:10084000003C02400D4885460D480E490E4A0023E3
:1008500002E0D458C4500433C4188C42F9D30B4A74
:100860000B4C002301E013600432A242FBD3FFF7DC
:1008700039FF00F011F8FFF77DFEFEE700000120D0
:1008800000000020B8050020BC0E0008B8050020BC
:1008900000060020FEE7000070B50D4E0D4D761BE2
:1008A000B61006D00024013455F8043B9847A64200
:1008B000F9D1094E094D761B00F04CFAB61006D05E
:1008C0000024013455F8043B9847A642F9D170BD85
:1008D000B00E0008B00E0008B80E0008B00E0008F8
:1008E000931E222B15D80A2A10B50B4605D00C46AC
:1008F000194600F039F9204610BD0028F7DA2D24FA
:1009000003F8014B40420C46194600F02DF92046F1
:1009100010BD002008707047FFF7E2BF830710B5D5
:10092000044610D10268A2F1013323EA020313F056
:10093000803F08D150F8042FA2F1013323EA0203CB
:1009400013F0803FF6D003781BB110F8013F002B65
:10095000FBD100F003F8204610BD00BF80EA010281
:10096000844612F0030F4FD111F0030F32D14DF82E
:10097000044D11F0040F51F8043B0BD0A3F10132E8
:100980009A4312F0803F04BF4CF8043B51F8043BFB
:1009900016D100BF51F8044BA3F101329A4312F073
:1009A000803FA4F101320BD14CF8043BA24312F07A
:1009B000803F04BF51F8043B4CF8044BEAD0234677
:1009C0000CF8013B13F0FF0F4FEA3323F8D15DF829
:1009D000044B704711F0010F06D011F8012B0CF8F1
:1009E000012B002A08BF704711F0020FBFD031F869
:1009F000022B12F0FF0F16BF2CF8022B8CF80020F0
:100A000012F47F4FB3D1704711F8012B0CF8012B72
:100A1000002AF9D1704700BF2DE9F84F0E468046F5
:100A2000174699460D4600E025462C460A9814F8CC
:100A300001BB00F003F95844417811F00801F3D1EB
:100A4000BBF12D0F57D0BBF12B0F04BF95F801B0B0
:100A5000AC1CB9F1000F04D0B9F1100F50D0CC4646
:100A600005E0BBF1300F55D04FF00A09CC46002904
:100A70000CBF6FF0004E4FF0004E0025BEFBFCF3A4
:100A800028460CFB13EA05E029D00CFB00200125C9
:100A900014F801BBABF13002092A05D9ABF14102D0
:100AA000192A0BD8ABF1370291450FDDB5F1FF3FA5
:100AB000EED08342E8D24FF0FF35E9E7ABF16102B7
:100AC000192A03D8ABF157029145EFDC6B1C0BD010
:100AD00001B140420FB14DBB3E60BDE8F88F924579
:100AE000D3DA4FF0FF35D3E72223C8F80030FFB147
:100AF000661E7046F0E7AC1C95F801B00121A8E72E
:100B0000BBF1300FABD1237803F0DF03582B06D0B5
:100B1000CC46ACE7237803F0DF03582B0AD14FF023
:100B2000100C94F801B0E1460234A0E78646DFE7F6
:100B30007046D2E74FF00809CC4698E730B5084C2C
:100B4000084B25686C6B83B0002C08BF1C460094D2
:100B500013460A4601462846FFF75EFF03B030BD44
:100B60001C0000204C040020F0B4DFF878C01746C9
:100B700004460E46BCE80F008AB06D460FC5BCE8BF
:100B80000F000FC59CE80300BB1E45F8040B222B89
:100B9000297023D8751E2846002200E01A46B4FBAF
:100BA000F7F10AAB07FB114423440C4613F8283C29
:100BB00000F8013F531C0029F0D1F15452B13344E5
:100BC00013F8011D15F8010F29700134111B8C4217
:100BD0001870F5DB30460AB0F0BC7047002030706A
:100BE000F9E700BF740D0008024B13B1024800F092
:100BF00005B8704700000000090C000800230146FA
:100C00001A46184600F046B838B50A4C0A4D641B1F
:100C1000A4100AD004F18043013B05EB8305013C9D
:100C200055F804399847002CF9D1BDE8384000F058
:100C300097B800BFBC0E0008B80E0008D0F8EC0052
:100C4000704700BF704700BF704700BF82B049B116
:100C50005AB16BB113780B601278101C18BF0120C9
:100C600002B0704701A9002AF3D1104602B07047C4
:100C70006FF00100F4E700BF21B1FF2A04D80A7029
:100C800001207047084670478A2303604FF0FF3009
:100C9000704700BF2DE9F8432B4D0646286898465B
:100CA0000F469146FFF7CEFF284B1C68D4F8483119
:100CB000002B3DD05A681F2A0DDC02F1010C16BB37
:100CC0000232C3F804C0286843F82270FFF7BCFF63
:100CD0000020BDE8F8831E4B7BB34FF4C870AFF320
:100CE0000080034648B3D4F848210021C0E9002120
:100CF0004FF0010CC4F848010A46C0F88811C0F84A
:100D00008C11002EDCD003EB82010124C1F8889005
:100D1000D3F8880194402043022EC3F88801C1F81B
:100D20000881CDD1D3F88C110C43C3F88C41C7E7AF
:100D300004F5A673C4F84831BCE72868FFF784FFC0
:100D40004FF0FF30C5E700BF48040020700D0008D9
:100D500000000000F8B500BFF8BC08BC9E46704714
:0C0D6000F8B500BFF8BC08BC9E46704708
:100D6C00300000002000002030313233343536376B
:100D7C0038396162636465666768696A6B6C6D6E4D
:100D8C006F707172737475767778797A00000000E1
:100D9C0043000000504F5349580000002E00000043
:100DAC00002020202020202020202828282828202F
:100DBC002020202020202020202020202020202027
:100DCC00208810101010101010101010101010108F
:100DDC00100404040404040404040410101010107F
:100DEC001010414141414141010101010101010149
:100DFC00010101010101010101010101101010109B
:100E0C00101042424242424202020202020202021A
:100E1C00020202020202020202020202101010106E
:100E2C002000000000000000000000000000000096
:100E3C0000000000000000000000000000000000A6
:100E4C000000000000000000000000000000000096
:100E5C000000000000000000000000000000000086
:100E6C000000000000000000000000000000000076
:100E7C000000000000000000000000000000000066
:100E8C000000000000000000000000000000000056
:100E9C000000000000000000000000000000000046
:040EAC000000000042
:080EB000E90B0008E501000850
:040EB800C10100086C
:100EBC00000002400004024000080240000C024006
:100ECC0000100240307800000000000020000020DC
:100EDC00000000000C03002074030020DC03002041
:100EEC0000000000000000000000000000000000F6
:100EFC0000000000000000000000000000000000E6
:100F0C0000000000000000000000000000000000D5
:100F1C0000000000000000000000000000000000C5
:100F2C0000000000000000000000000000000000B5
:100F3C0000000000000000000000000000000000A5
:100F4C000000000000000000000000000000000095
:100F5C000000000000000000000000000000000085
:100F6C000000000000000000000000000000000075
:100F7C000000000000000000010000000000000064
:100F8C000E33CDAB34126DE6ECDE05000B00000029
:100F9C000000000000000000000000000000000045
:100FAC000000000000000000000000000000000035
:100FBC000000000000000000000000000000000025
:100FCC000000000000000000000000000000000015
:1012FC000000000000000000DC050020430000009E
:10130C0000000000000000000000000000000000D1
:10131C00000000000000000000000000430000007E
:10132C0000000000000000000000000000000000B1
:10133C00000000000000000000000000430000005E
:10134C000000000000000000000000000000000091
:10135C00000000000000000000000000430000003E
:10136C000000000000000000000000000000000071
:10137C00000000000000000000000000430000001E
:10138C000000000000000000000000000000000051
:10139C0000000000000000000000000043000000FE
:1013AC000000000000000000000000000000000031
:1013BC0000000000000000000000000043000000DE
:1013CC000000000000000000000000000000000011
:1013DC00000000000000000000000000790C000874
:1013EC004D0C000800000000AC0D0008A80D000812
:1013FC00980D0008980D0008980D0008980D00082D
:10140C00980D0008980D0008980D0008980D00081C
:10141C00980D0008FFFFFFFFFFFFFFFFFFFFFFFF1F
:10142C00FFFF000001004153434949000000000048
:10143C0000000000000000000000000000000000A0
:10144C000000000000004153434949000000000027
:10145C000000000000000000000000000000000080
:08146C00000000000000000078
:0400000508000845A2
:00000001FF
